:100000000C9463000C948B000C948B000C948B006C
:100010000C948B000C948B000C948B000C948B0034
:100020000C948B000C948B000C948B000C94D201DC
:100030000C948B000C948B000C948B000C948B0014
:100040000C9447040C948B000C9460050C948B006A
:100050000C948B000C948B000C948B000C948B00F4
:100060000C948B000C948B000000000024002700EF
:100070002A0000000000250028002B0000000000DE
:1000800023002600290004040404040404040202DA
:100090000202020203030303030301020408102007
:1000A0004080010204081020010204081020000012
:1000B0000007000201000003040600000000000029
:1000C00000008F02E50611241FBECFEFD8E0DEBF8F
:1000D000CDBF11E0A0E0B1E0EEE5F2E102C0059095
:1000E0000D92AE34B107D9F712E0AEE4B1E001C031
:1000F0001D92A73DB107E1F710E0C6ECD0E004C0C7
:100100002297FE010E942909C23CD107C9F70E942B
:1001100040040C942D090C940000FC0180914E01C8
:100120008C3090F480838F5F80934E01815090E0FB
:10013000FC01EE0FFF1FE80FF91FE15BFE4F88EB9C
:100140009BE09283818308958FEF80830895FC0163
:1001500020812C30C0F58181992787FD909548E852
:1001600050E0481B590B440F551F440F551F64178F
:10017000750784F08281992787FD909548E552E0C4
:10018000481B590B440F551F440F551F6417750723
:100190000CF4AB01CA01AA2797FDA095BA2F0697C8
:1001A000A109B109880F991FAA1FBB1F4FB7F89467
:1001B00030E0F901EE0FFF1FE20FF31FE15BFE4F8E
:1001C000928381834FBF0895AF92BF92CF92DF9207
:1001D000EF92FF920F931F93CF93DF93EC019B015C
:1001E00082E0603278070CF048C077FF03C020E05F
:1001F00030E005C0653B710514F024EB30E000D021
:1002000000D0B901882777FD8095982F2981332761
:1002100027FD3095B8E8AB2EB12CA21AB30AAA0C70
:10022000BB1CAA0CBB1CCC24B7FCC094DC2CEA8100
:10023000FF27E7FDF09528E532E02E1B3F0B220F4C
:10024000331F220F331F442737FD4095542FEDB73E
:10025000FEB7218332834383548320E030E040E0C3
:1002600050E0E4EBEE2EF12C012D112D0E944F08F1
:100270009B010F900F900F900F90CE01B9010E943B
:10028000A700DF91CF911F910F91FF90EF90DF902A
:10029000CF90BF90AF900895CF92DF92EF92FF92F0
:1002A0001F93CF93DF93EC01162F7A0169018881A8
:1002B0008C3008F064C0862F61E00E94F3048881CE
:1002C00090E0FC01EE0FFF1FE80FF91FE15BFE4F0E
:1002D0001F738081807C812B808380E292E08E1965
:1002E0009F0964E070E00E94C308698380E699E09A
:1002F0008C199D0964E070E00E94C3086A83A8819C
:100300008A2F6CE00E94B708682F70E0AB01440FA1
:10031000551F460F571F440F551F440F551F20E010
:1003200030E0C901840F951FFC01EE0FFF1FE80F9D
:10033000F91FE15BFE4F808186FD15C02F5F3F4FA7
:100340002C30310571F724C01092800082E0809338
:1003500081001092850010928400B19A80916F0004
:10036000826080936F008A2F90E0FC01EE0FFF1FE8
:10037000E80FF91FE15BFE4F8081806480838881F4
:10038000DF91CF911F91FF90EF90DF90CF90089574
:10039000672BD1F2E8CF40E252E020E639E00E943C
:1003A0004C0108951F920F920FB60F9211242F93B4
:1003B0003F934F935F936F937F938F939F93AF93ED
:1003C000BF93EF93FF938091730187FF05C0109255
:1003D0008500109284002BC020917301332727FDE4
:1003E000309580914E0190E02817390704F58091EF
:1003F0007301992787FD9095FC01EE0FFF1FE80F11
:10040000F91FE15BFE4F808186FF11C0809173016F
:10041000992787FD9095FC01EE0FFF1FE80FF91F4C
:10042000E15BFE4F80818F7360E00E941305809135
:1004300073018F5F8093730120917301332727FD30
:10044000309580914E0190E0281739070CF04EC08E
:10045000809173018C300CF049C020918400309160
:10046000850080917301992787FD9095FC01EE0F1F
:10047000FF1FE80FF91FE15BFE4F81819281280F7A
:10048000391F309389002093880080917301992748
:1004900087FD9095FC01EE0FFF1FE80FF91FE15B50
:1004A000FE4F808186FF2AC080917301992787FDC6
:1004B0009095FC01EE0FFF1FE80FF91FE15BFE4F67
:1004C00080818F7361E00E94130518C080E49CE96D
:1004D00005C08091840090918500049690938900D6
:1004E000809388008FEF8093730108C0809184000F
:1004F0009091850084549C4948F3EBCFFF91EF9194
:10050000BF91AF919F918F917F916F915F914F912B
:100510003F912F910F900FBE0F901F90189586E777
:1005200091E00E948D0089E791E00E948D008CE7A8
:1005300091E00E948D008FE791E00E948D0082E89B
:1005400091E00E948D0085E891E00E948D0088E88E
:1005500091E00E948D008BE891E00E948D008EE872
:1005600091E00E948D000895CF93DF9380917401F4
:10057000909175016AE070E00E94C308892BE1F454
:100580008091300190913101892BB1F0C1E9D1E026
:100590006991799184EC92E00E943F0881E0C13A30
:1005A000D807B1F784EC92E06FE171E00E94750723
:1005B000109231011092300160919101709192017D
:1005C0006550704086E791E00E94E40060919301DD
:1005D000709194016B5F7F4F89E791E00E94E40086
:1005E00060919501709196016B5F7F4F8CE791E070
:1005F0000E94E40060919701709198018FE791E06B
:100600000E94E4006091990170919A0182E891E062
:100610000E94E40060919B0170919C0185E891E04B
:100620000E94E40060919D0170919E0188E891E034
:100630000E94E40080919F019091A001813091057A
:10064000A1F0823091051CF4892B39F012C0823060
:10065000910531F0039769F408C066E970E007C0BE
:1006600066E970E0C6E4D0E004C066E470E0C0E093
:10067000D0E08BE891E00E94E4008EE891E0BE01BA
:100680000E94E4008091740190917501019690930D
:10069000750180937401DF91CF9108950F931F939B
:1006A000CF93DF93109234021092330201E010E0F6
:1006B0003FC084EC92E00E94AA06EC0161E070E089
:1006C00080E090E00E948F04CD3FD10549F4109363
:1006D000340200933302109236021092350228C081
:1006E000CF3FD10579F4109234021092330281E0A9
:1006F00090E0909331018093300110923202109279
:1007000031021DC08091330290913402892B81F017
:100710008091310290913202FC01EE0FFF1FEF56E3
:10072000FE4FD183C08301969093320280933102B1
:1007300084EC92E00E949606882309F0BACFDF91FC
:10074000CF911F910F9108950E944E030E94B40211
:10075000089584EC92E040E052EC61E070E00E9489
:100760009D0560913C0170913D0186E791E00E94FA
:10077000CB0160913E0170913F0189E791E00E94B9
:10078000CB0160914001709141018CE791E00E94A2
:10079000CB0160914201709143018FE791E00E948B
:1007A000CB01609132017091330182E891E00E94A7
:1007B000CB01609134017091350185E891E00E9490
:1007C000CB01609136017091370188E891E00E9479
:1007D000CB0160913801709139018BE891E00E9462
:1007E000CB0160913A0170913B018EE891E00E944B
:1007F000CB0186E791E065E570E00E94E40089E7BF
:1008000091E06FE570E00E94E4008CE791E06FE515
:1008100070E00E94E4008FE791E06AE570E00E94DA
:10082000E40082E891E06AE570E00E94E40085E877
:1008300091E06AE470E00E94E40088E891E06AE5F3
:1008400070E00E94E4008BE891E066E970E00E94AD
:10085000E4008EE891E060E070E00E94E400E1E9ED
:10086000F1E08AE590E08193919322E0E133F20791
:10087000D1F784EC92E063E271E00E94750708957D
:100880000E94B9040E94A9030E94A403FDCF1F92F5
:100890000F920FB60F9211242F933F938F939F9334
:1008A000AF93BF9380913B0290913C02A0913D0297
:1008B000B0913E0230913F020196A11DB11D232F40
:1008C0002D5F2D3720F02D570196A11DB11D2093CE
:1008D0003F0280933B0290933C02A0933D02B09371
:1008E0003E028091370290913802A0913902B09176
:1008F0003A020196A11DB11D8093370290933802F0
:10090000A0933902B0933A02BF91AF919F918F911A
:100910003F912F910F900FBE0F901F901895EF925F
:10092000FF920F931F937B018C018FB7F894409136
:100930003B0250913C0260913D0270913E028FBF9C
:100940002FB7F89480913B0290913C02A0913D0218
:10095000B0913E022FBF841B950BA60BB70BE81678
:10096000F9060A071B0760F71F910F91FF90EF90A0
:100970000895789484B5826084BD84B5816084BD17
:1009800085B5826085BD85B5816085BDEEE6F0E008
:10099000808181608083E1E8F0E0808182608083F3
:1009A000808181608083E0E8F0E0808181608083E5
:1009B000E1EBF0E0808184608083E0EBF0E0808117
:1009C00081608083EAE7F0E08081846080838081B9
:1009D0008260808380818160808380818068808361
:1009E0001092C1000895282F30E0C90186569F4F0C
:1009F000FC0194912A573F4FF9018491882391F08B
:100A0000E82FF0E0EE0FFF1FE859FF4FA591B491DA
:100A1000662329F48C91909589238C9308958C9169
:100A2000892B8C930895482F50E0CA0182559F4F1F
:100A3000FC012491CA0186569F4FFC0194914A57AC
:100A40005F4FFA0134913323D1F1222331F1233066
:100A500021F4809180008F7705C0243031F480919B
:100A600080008F7D8093800018C0213019F484B5F8
:100A70008F7704C0223021F484B58F7D84BD0DC0F2
:100A8000263021F48091B0008F7705C0273029F4FB
:100A90008091B0008F7D8093B000E32FF0E0EE0FE7
:100AA000FF1FEE58FF4FA591B491662329F48C9156
:100AB000909589238C9308958C91892B8C9308951C
:100AC0001F920F920FB60F9211242F933F934F93C3
:100AD0005F936F937F938F939F93AF93BF93EF93A6
:100AE000FF934091C600E091C002F091C102CF0196
:100AF000019660E870E00E94C3089C018091C202E8
:100B00009091C3022817390739F0E05CFD4F40830C
:100B10003093C1022093C002FF91EF91BF91AF913A
:100B20009F918F917F916F915F914F913F912F9105
:100B30000F900FBE0F901F9018955F926F927F924B
:100B40008F929F92AF92BF92CF92DF92EF92FF92DD
:100B50000F931F93CF93DF93EC013A014B01413484
:100B600082E458078FE0680780E078070CF07FC0C8
:100B700060E874E88EE190E0A40193010E94F80817
:100B80002150304040405040CA01B90122E030E0DD
:100B900040E050E00E94F80859016A01A601950161
:100BA000209530954095509594E0220F331F441FB7
:100BB000551F9A95D1F760E074E284EF90E00E94AF
:100BC000F808CA01B9012FEF30E040E050E00E9480
:100BD0009808A40193010E94F808C90181509F4F11
:100BE000181619061CF4522E5A9403C05524539417
:100BF000521A60E079E08DE390E0A40193010E9435
:100C0000F8082150304040405040CA01B90122E06C
:100C100030E040E050E00E94F80820953095409583
:100C2000509583E0220F331F441F551F8A95D1F73B
:100C300060E074E284EF90E00E94F808CA01B90114
:100C40002FEF30E040E050E00E949808A4019301AB
:100C50000E94F808C90181509F4F181619061CF40C
:100C6000822F815002C081E0821B851500F5E88546
:100C7000F98581E090E00A8802C0880F991F0A94E4
:100C8000E2F7808360E079E08DE390E0A4019301D6
:100C90000E94F8082150304040405040CA01B9013C
:100CA00022E030E040E050E00E94F80804C0E8850F
:100CB000F98510829501EC81FD813083EE81FF8101
:100CC0002083EA85FB85208141E050E0CA010E8443
:100CD00002C0880F991F0A94E2F7282B2083EA8527
:100CE000FB852081CA010F8402C0880F991F0A94D6
:100CF000E2F7282B2083EA85FB858081088802C0E3
:100D0000440F551F0A94E2F7842B8083DF91CF9123
:100D10001F910F91FF90EF90DF90CF90BF90AF9019
:100D20009F908F907F906F905F900895DC01129656
:100D3000ED91FC911397E058FF4F8191919180586C
:100D40009F4F20813181821B930B60E870E00E94ED
:100D5000C3080895CF93DF93DC011296ED91FC91C7
:100D60001397EF01CE57DF4F48815981E058FF4F6D
:100D700080819181E058F0408417950719F42FEF96
:100D80003FEF0CC0E40FF51F2081CA01019660E817
:100D900070E00E94C3089983888330E0C901DF9125
:100DA000CF910895FC01A085B18521898C9190E0B7
:100DB000022E02C0959587950A94E2F780FFF6CF40
:100DC0000484F585E02D6083089588E491E0909394
:100DD000C5028093C40280E492E09093C70280939E
:100DE000C60285EC90E09093C9028093C80284EC1F
:100DF00090E09093CB028093CA0280EC90E09093B5
:100E0000CD028093CC0281EC90E09093CF0280934E
:100E1000CE0286EC90E09093D1028093D00284E0E1
:100E20008093D20283E08093D30287E08093D40240
:100E300085E08093D50281E08093D60208950F93D8
:100E40001F93CF93DF938C01EB0109C02196D8014A
:100E5000ED91FC910190F081E02DC8010995688128
:100E60006623A1F7DF91CF911F910F910895EF9223
:100E7000FF920F931F93CF93DF938C017B01EA01C5
:100E80000CC0D7016D917D01D801ED91FC910190CD
:100E9000F081E02DC80109952197209791F7DF9106
:100EA000CF911F910F91FF90EF900895DC01ED918C
:100EB000FC910280F381E02D099508950F931F9313
:100EC0008C01DC01ED91FC910190F081E02D6DE051
:100ED0000995D801ED91FC910190F081E02DC801B8
:100EE0006AE009951F910F9108950F931F938C014C
:100EF0000E945607C8010E945E071F910F91089536
:100F00002F923F924F925F926F927F928F929F9219
:100F1000AF92BF92CF92DF92EF92FF920F931F9307
:100F2000DF93CF93CDB7DEB7A0970FB6F894DEBFAF
:100F30000FBECDBF1C016A017B0141155105610542
:100F4000710549F4DC01ED91FC910190F081E02DF7
:100F500060E3099554C0882499245401422E5524F5
:100F60006624772401E010E00C0F1D1F080D191DE9
:100F7000C701B601A30192010E94D608F80160835F
:100F80000894811C911CA11CB11CC701B601A301CE
:100F900092010E94D608C901DA016C017D01C114D9
:100FA000D104E104F104F1F681E0E82EF12CEC0E1D
:100FB000FD1EE80CF91C3E010894611C711CD50152
:100FC000C4010197A109B1096C01C818D90814C05E
:100FD000F601EE0DFF1D60816A3010F4605D01C006
:100FE000695CD101ED91FC910190F081E02DC1018E
:100FF00009950894E108F1086E147F0449F7A0965A
:101000000FB6F894DEBF0FBECDBFCF91DF911F9119
:101010000F91FF90EF90DF90CF90BF90AF909F9097
:101020008F907F906F905F904F903F902F9008959A
:10103000EF92FF920F931F93CF93DF93EC017A010E
:101040008B0177FF0FC0E881F9810190F081E02DDD
:101050006DE2099510950095F094E094E11CF11C67
:10106000011D111DCE01B801A7012AE00E948007D1
:10107000DF91CF911F910F91FF90EF9008950F9303
:101080001F938C01AB01662757FD6095762F0E9458
:101090001808C8010E945E071F910F9108952F92B2
:1010A0003F924F925F926F927F928F929F92AF92F8
:1010B000BF92CF92DF92EF92FF920F931F93DF9335
:1010C000CF93CDB7DEB73B014C0119012A016D89E1
:1010D0007E898F89988D6A197B098C099D09621A0E
:1010E000730A840A950AA40193010E949808E218E1
:1010F000F30804091509A80197010E94F8082A0DB0
:101100003B1D4C1D5D1DB901CA01CF91DF911F919F
:101110000F91FF90EF90DF90CF90BF90AF909F9096
:101120008F907F906F905F904F903F902F90089599
:10113000629FD001739FF001829FE00DF11D649FBB
:10114000E00DF11D929FF00D839FF00D749FF00D47
:10115000659FF00D9927729FB00DE11DF91F639FE8
:10116000B00DE11DF91FBD01CF0111240895991B98
:1011700079E004C0991F961708F0961B881F7A958E
:10118000C9F78095089597FB092E07260AD077FDA9
:1011900004D049D006D000201AF4709561957F4F95
:1011A0000895F6F7909581959F4F0895A1E21A2E24
:1011B000AA1BBB1BFD010DC0AA1FBB1FEE1FFF1FFB
:1011C000A217B307E407F50720F0A21BB30BE40B4B
:1011D000F50B661F771F881F991F1A9469F7609592
:1011E0007095809590959B01AC01BD01CF0108954C
:1011F00097FB092E05260ED057FD04D0D7DF0AD065
:10120000001C38F450954095309521953F4F4F4F35
:101210005F4F0895F6F790958095709561957F4F93
:101220008F4F9F4F0895AA1BBB1B51E107C0AA1FF8
:10123000BB1FA617B70710F0A61BB70B881F991F77
:101240005A95A9F780959095BC01CD010895EE0FB0
:0E125000FF1F0590F491E02D0994F894FFCF54
:10125E0054696D656F757420726563696576696E24
:10126E00672073657269616C20646174612E003D44
:10127E003D3D00736572766F735F726561647900D0
:10128E00010003000500060009000A000E000F0011
:0E129E001000110000000000D2061F073707E5
:00000001FF
