:100000000C9463000C948B000C948B000C948B006C
:100010000C948B000C948B000C948B000C948B0034
:100020000C948B000C948B000C948B000C94D201DC
:100030000C948B000C948B000C948B000C948B0014
:100040000C9469040C948B000C9482050C948B0026
:100050000C948B000C948B000C948B000C948B00F4
:100060000C948B000C948B000000000024002700EF
:100070002A0000000000250028002B0000000000DE
:1000800023002600290004040404040404040202DA
:100090000202020203030303030301020408102007
:1000A0004080010204081020010204081020000012
:1000B0000007000201000003040600000000000029
:1000C00000008F02070711241FBECFEFD8E0DEBF6C
:1000D000CDBF11E0A0E0B1E0E2EAF2E102C005909C
:1000E0000D92AA34B107D9F712E0AAE4B1E001C039
:1000F0001D92A33DB107E1F710E0C6ECD0E004C0CB
:100100002297FE010E944B09C23CD107C9F70E9409
:1001100062040C944F090C940000FC0180914A0188
:100120008C3090F480838F5F80934A01815090E0FF
:10013000FC01EE0FFF1FE80FF91FE55BFE4F88EB98
:100140009BE09283818308958FEF80830895FC0163
:1001500020812C30C0F58181992787FD909548E852
:1001600050E0481B590B440F551F440F551F64178F
:10017000750784F08281992787FD909548E552E0C4
:10018000481B590B440F551F440F551F6417750723
:100190000CF4AB01CA01AA2797FDA095BA2F0697C8
:1001A000A109B109880F991FAA1FBB1F4FB7F89467
:1001B00030E0F901EE0FFF1FE20FF31FE55BFE4F8A
:1001C000928381834FBF0895AF92BF92CF92DF9207
:1001D000EF92FF920F931F93CF93DF93EC019B015C
:1001E00082E0603278070CF048C077FF03C020E05F
:1001F00030E005C0653B710514F024EB30E000D021
:1002000000D0B901882777FD8095982F2981332761
:1002100027FD3095B8E8AB2EB12CA21AB30AAA0C70
:10022000BB1CAA0CBB1CCC24B7FCC094DC2CEA8100
:10023000FF27E7FDF09528E532E02E1B3F0B220F4C
:10024000331F220F331F442737FD4095542FEDB73E
:10025000FEB7218332834383548320E030E040E0C3
:1002600050E0E4EBEE2EF12C012D112D0E947108CF
:100270009B010F900F900F900F90CE01B9010E943B
:10028000A700DF91CF911F910F91FF90EF90DF902A
:10029000CF90BF90AF900895CF92DF92EF92FF92F0
:1002A0001F93CF93DF93EC01162F7A0169018881A8
:1002B0008C3008F064C0862F61E00E9415058881AB
:1002C00090E0FC01EE0FFF1FE80FF91FE55BFE4F0A
:1002D0001F738081807C812B808380E292E08E1965
:1002E0009F0964E070E00E94E508698380E699E078
:1002F0008C199D0964E070E00E94E5086A83A8817A
:100300008A2F6CE00E94D908682F70E0AB01440F7F
:10031000551F460F571F440F551F440F551F20E010
:1003200030E0C901840F951FFC01EE0FFF1FE80F9D
:10033000F91FE55BFE4F808186FD15C02F5F3F4FA3
:100340002C30310571F724C01092800082E0809338
:1003500081001092850010928400B19A80916F0004
:10036000826080936F008A2F90E0FC01EE0FFF1FE8
:10037000E80FF91FE55BFE4F8081806480838881F0
:10038000DF91CF911F91FF90EF90DF90CF90089574
:10039000672BD1F2E8CF40E252E020E639E00E943C
:1003A0004C0108951F920F920FB60F9211242F93B4
:1003B0003F934F935F936F937F938F939F93AF93ED
:1003C000BF93EF93FF9380916F0187FF05C0109259
:1003D0008500109284002BC020916F01332727FDE8
:1003E000309580914A0190E02817390704F58091F3
:1003F0006F01992787FD9095FC01EE0FFF1FE80F15
:10040000F91FE55BFE4F808186FF11C080916F016F
:10041000992787FD9095FC01EE0FFF1FE80FF91F4C
:10042000E55BFE4F80818F7360E00E94350580910F
:100430006F018F5F80936F0120916F01332727FD3C
:10044000309580914A0190E0281739070CF04EC092
:1004500080916F018C300CF049C020918400309164
:10046000850080916F01992787FD9095FC01EE0F23
:10047000FF1FE80FF91FE55BFE4F81819281280F76
:10048000391F309389002093880080916F0199274C
:1004900087FD9095FC01EE0FFF1FE80FF91FE55B4C
:1004A000FE4F808186FF2AC080916F01992787FDCA
:1004B0009095FC01EE0FFF1FE80FF91FE55BFE4F63
:1004C00080818F7361E00E94350518C080E49CE94B
:1004D00005C08091840090918500049690938900D6
:1004E000809388008FEF80936F0108C08091840013
:1004F0009091850084549C4948F3EBCFFF91EF9194
:10050000BF91AF919F918F917F916F915F914F912B
:100510003F912F910F900FBE0F901F90189582E77B
:1005200091E00E948D0085E791E00E948D0088E7B0
:1005300091E00E948D008BE791E00E948D008EE794
:1005400091E00E948D0081E891E00E948D0084E896
:1005500091E00E948D0087E891E00E948D008AE87A
:1005600091E00E948D000895CF93DF9380917001F8
:10057000909171016AE070E00E94E508892BB1F466
:1005800080912C0190912D01892B81F0CDE8D1E053
:100590006991799180EC92E00E94610881E0C13A12
:1005A000D807B1F710922D0110922C0160918D01A6
:1005B00070918E016550704082E791E00E94E400E6
:1005C00060918F01709190016B5F7F4F85E791E0A3
:1005D0000E94E40060919101709192016B5F7F4FE6
:1005E00088E791E00E94E40060919301709194018A
:1005F0008BE791E00E94E400609195017091960173
:100600008EE791E00E94E40060919701709198015B
:1006100081E891E00E94E4006091990170919A0153
:1006200084E891E00E94E40080919B0190919C01FC
:1006300081309105A1F0823091051CF4892B39F0AD
:1006400012C08230910531F0039769F408C066E961
:1006500070E007C066E970E0C6E4D0E004C066E47C
:1006600070E0C0E0D0E087E891E00E94E4008AE812
:1006700091E0BE010E94E4008091700190917101AF
:1006800001969093710180937001DF91CF9108954D
:100690000F931F93CF93DF931092300210922F028B
:1006A00001E010E03FC080EC92E00E94CC06EC013B
:1006B00061E070E080E090E00E94B104CD3FD105A0
:1006C00049F41093300200932F02109232021092DC
:1006D000310228C0CF3FD10579F410923002109238
:1006E0002F0281E090E090932D0180932C011092D5
:1006F0002E0210922D021DC080912F029091300287
:10070000892B81F080912D0290912E02FC01EE0F39
:10071000FF1FE357FE4FD183C083019690932E02B3
:1007200080932D0280EC92E00E94B806882309F0A5
:10073000BACFDF91CF911F910F9108950E94480386
:100740000E94B40208952F923F924F925F926F924F
:100750007F928F929F92AF92BF92CF92DF92EF9251
:10076000FF920F931F93CF93DF9380EC92E040E0D2
:1007700052EC61E070E00E94BF05C2E7D1E06091F9
:10078000380170913901CE010E94CB01F5E72F2E7F
:10079000F1E03F2E60913A0170913B01C1010E944E
:1007A000CB01E8E74E2EE1E05E2E60913C017091B6
:1007B0003D01C2010E94CB017BE7672E71E0772EDD
:1007C00060913E0170913F01C3010E94CB016EE731
:1007D000862E61E0962E60912E0170912F01C4014A
:1007E0000E94CB0151E8A52E51E0B52E6091300159
:1007F00070913101C5010E94CB0144E8C42E41E053
:10080000D42E6091320170913301C6010E94CB0158
:1008100037E8E32E31E0F32E609134017091350119
:10082000C7010E94CB010AE811E060913601709186
:100830003701C8010E94CB01CE0165E570E00E943E
:10084000E400C1016FE570E00E94E400C2016FE5C1
:1008500070E00E94E400C3016AE570E00E94E400D9
:10086000C4016AE570E00E94E400C5016AE470E03A
:100870000E94E400C6016AE570E00E94E400C7013E
:1008800060E070E00E94E400C80160E070E00E9457
:10089000E40080EC92E06FE171E00E949707DF9145
:1008A000CF911F910F91FF90EF90DF90CF90BF906D
:1008B000AF909F908F907F906F905F904F903F9000
:1008C0002F9008950E94DB040E94A3030E949E03C0
:1008D000FDCF1F920F920FB60F9211242F933F93CB
:1008E0008F939F93AF93BF9380913702909138027B
:1008F000A0913902B0913A0230913B020196A11DBC
:10090000B11D232F2D5F2D3720F02D570196A11DEE
:10091000B11D20933B028093370290933802A0933D
:100920003902B0933A028091330290913402A0913F
:100930003502B09136020196A11DB11D809333029C
:1009400090933402A0933502B0933602BF91AF91D9
:100950009F918F913F912F910F900FBE0F901F90FD
:100960001895EF92FF920F931F937B018C018FB725
:10097000F894409137025091380260913902709199
:100980003A028FBF2FB7F8948091370290913802C6
:10099000A0913902B0913A022FBF841B950BA60B90
:1009A000B70BE816F9060A071B0760F71F910F91AE
:1009B000FF90EF900895789484B5826084BD84B5EB
:1009C000816084BD85B5826085BD85B5816085BD4A
:1009D000EEE6F0E0808181608083E1E8F0E08081F4
:1009E00082608083808181608083E0E8F0E08081A4
:1009F00081608083E1EBF0E0808184608083E0EBC4
:100A0000F0E0808181608083EAE7F0E080818460AB
:100A10008083808182608083808181608083808107
:100A2000806880831092C1000895282F30E0C901AA
:100A300086569F4FFC0194912A573F4FF9018491AC
:100A4000882391F0E82FF0E0EE0FFF1FE859FF4FE9
:100A5000A591B491662329F48C91909589238C9368
:100A600008958C91892B8C930895482F50E0CA01EA
:100A700082559F4FFC012491CA0186569F4FFC016D
:100A800094914A575F4FFA0134913323D1F12223D5
:100A900031F1233021F4809180008F7705C024301C
:100AA00031F4809180008F7D8093800018C02130C8
:100AB00019F484B58F7704C0223021F484B58F7D7A
:100AC00084BD0DC0263021F48091B0008F7705C021
:100AD000273029F48091B0008F7D8093B000E32F00
:100AE000F0E0EE0FFF1FEE58FF4FA591B491662383
:100AF00029F48C91909589238C9308958C91892B5E
:100B00008C9308951F920F920FB60F9211242F937A
:100B10003F934F935F936F937F938F939F93AF9385
:100B2000BF93EF93FF934091C600E091BC02F09118
:100B3000BD02CF01019660E870E00E94E5089C01CB
:100B40008091BE029091BF022817390739F0E45C0A
:100B5000FD4F40833093BD022093BC02FF91EF9183
:100B6000BF91AF919F918F917F916F915F914F91C5
:100B70003F912F910F900FBE0F901F9018955F928D
:100B80006F927F928F929F92AF92BF92CF92DF929D
:100B9000EF92FF920F931F93CF93DF93EC013A01F3
:100BA0004B01413482E458078FE0680780E0780702
:100BB0000CF07FC060E874E88EE190E0A40193013E
:100BC0000E941A092150304040405040CA01B901EA
:100BD00022E030E040E050E00E941A0959016A0129
:100BE000A6019501209530954095509594E0220FEF
:100BF000331F441F551F9A95D1F760E074E284EFCC
:100C000090E00E941A09CA01B9012FEF30E040E0DC
:100C100050E00E94BA08A40193010E941A09C90178
:100C200081509F4F181619061CF4522E5A9403C077
:100C300055245394521A60E079E08DE390E0A401CA
:100C400093010E941A092150304040405040CA018F
:100C5000B90122E030E040E050E00E941A092095FE
:100C600030954095509583E0220F331F441F551F48
:100C70008A95D1F760E074E284EF90E00E941A094F
:100C8000CA01B9012FEF30E040E050E00E94BA08FD
:100C9000A40193010E941A09C90181509F4F18169F
:100CA00019061CF4822F815002C081E0821B851539
:100CB00000F5E885F98581E090E00A8802C0880F98
:100CC000991F0A94E2F7808360E079E08DE390E079
:100CD000A40193010E941A09215030404040504025
:100CE000CA01B90122E030E040E050E00E941A0958
:100CF00004C0E885F98510829501EC81FD8130837F
:100D0000EE81FF812083EA85FB85208141E050E070
:100D1000CA010E8402C0880F991F0A94E2F7282B9B
:100D20002083EA85FB852081CA010F8402C0880FD9
:100D3000991F0A94E2F7282B2083EA85FB8580819E
:100D4000088802C0440F551F0A94E2F7842B808361
:100D5000DF91CF911F910F91FF90EF90DF90CF9097
:100D6000BF90AF909F908F907F906F905F9008950D
:100D7000DC011296ED91FC911397E058FF4F8191A1
:100D8000919180589F4F20813181821B930B60E8A5
:100D900070E00E94E5080895CF93DF93DC0112967E
:100DA000ED91FC911397EF01CE57DF4F48815981A8
:100DB000E058FF4F80819181E058F04084179507FB
:100DC00019F42FEF3FEF0CC0E40FF51F2081CA018B
:100DD000019660E870E00E94E5089983888330E01E
:100DE000C901DF91CF910895FC01A085B1852189CA
:100DF0008C9190E0022E02C0959587950A94E2F7B7
:100E000080FFF6CF0484F585E02D6083089584E4A7
:100E100091E09093C1028093C0028CE392E09093A2
:100E2000C3028093C20285EC90E09093C502809348
:100E3000C40284EC90E09093C7028093C60280ECD9
:100E400090E09093C9028093C80281EC90E0909367
:100E5000CB028093CA0286EC90E09093CD028093FF
:100E6000CC0284E08093CE0283E08093CF0287E0BF
:100E70008093D00285E08093D10281E08093D202FA
:100E800008950F931F93CF93DF938C01EB0109C05B
:100E90002196D801ED91FC910190F081E02DC801DF
:100EA000099568816623A1F7DF91CF911F910F917A
:100EB0000895EF92FF920F931F93CF93DF938C01CE
:100EC0007B01EA010CC0D7016D917D01D801ED9144
:100ED000FC910190F081E02DC801099521972097A0
:100EE00091F7DF91CF911F910F91FF90EF900895AF
:100EF000DC01ED91FC910280F381E02D09950895CC
:100F00000F931F938C01DC01ED91FC910190F08116
:100F1000E02D6DE00995D801ED91FC910190F081F3
:100F2000E02DC8016AE009951F910F9108950F9374
:100F30001F938C010E947807C8010E9480071F91AF
:100F40000F9108952F923F924F925F926F927F92EE
:100F50008F929F92AF92BF92CF92DF92EF92FF92C9
:100F60000F931F93DF93CF93CDB7DEB7A0970FB644
:100F7000F894DEBF0FBECDBF1C016A017B01411595
:100F800051056105710549F4DC01ED91FC91019079
:100F9000F081E02D60E3099554C088249924540120
:100FA000422E55246624772401E010E00C0F1D1F0B
:100FB000080D191DC701B601A30192010E94F8088E
:100FC000F80160830894811C911CA11CB11CC7010D
:100FD000B601A30192010E94F808C901DA016C016F
:100FE0007D01C114D104E104F104F1F681E0E82EA1
:100FF000F12CEC0EFD1EE80CF91C3E010894611C5E
:10100000711CD501C4010197A109B1096C01C8186F
:10101000D90814C0F601EE0DFF1D60816A3010F48E
:10102000605D01C0695CD101ED91FC910190F0819E
:10103000E02DC10109950894E108F1086E147F04C0
:1010400049F7A0960FB6F894DEBF0FBECDBFCF9183
:10105000DF911F910F91FF90EF90DF90CF90BF90A5
:10106000AF909F908F907F906F905F904F903F9048
:101070002F900895EF92FF920F931F93CF93DF93DA
:10108000EC017A018B0177FF0FC0E881F9810190B3
:10109000F081E02D6DE2099510950095F094E094B3
:1010A000E11CF11C011D111DCE01B801A7012AE0B0
:1010B0000E94A207DF91CF911F910F91FF90EF90B7
:1010C00008950F931F938C01AB01662757FD609520
:1010D000762F0E943A08C8010E9480071F910F9145
:1010E00008952F923F924F925F926F927F928F92CC
:1010F0009F92AF92BF92CF92DF92EF92FF920F93A7
:101100001F93DF93CF93CDB7DEB73B014C0119019D
:101110002A016D897E898F89988D6A197B098C09CE
:101120009D09621A730A840A950AA40193010E9418
:10113000BA08E218F30804091509A80197010E94EA
:101140001A092A0D3B1D4C1D5D1DB901CA01CF9125
:10115000DF911F910F91FF90EF90DF90CF90BF90A4
:10116000AF909F908F907F906F905F904F903F9047
:101170002F900895629FD001739FF001829FE00D30
:10118000F11D649FE00DF11D929FF00D839FF00D06
:10119000749FF00D659FF00D9927729FB00DE11DB2
:1011A000F91F639FB00DE11DF91FBD01CF0111248F
:1011B0000895991B79E004C0991F961708F0961BB3
:1011C000881F7A95C9F78095089597FB092E072601
:1011D0000AD077FD04D049D006D000201AF47095CB
:1011E00061957F4F0895F6F7909581959F4F0895EB
:1011F000A1E21A2EAA1BBB1BFD010DC0AA1FBB1F1B
:10120000EE1FFF1FA217B307E407F50720F0A21B8C
:10121000B30BE40BF50B661F771F881F991F1A94F9
:1012200069F760957095809590959B01AC01BD0123
:10123000CF01089597FB092E05260ED057FD04D047
:10124000D7DF0AD0001C38F4509540953095219591
:101250003F4F4F4F5F4F0895F6F7909580957095EB
:1012600061957F4F8F4F9F4F0895AA1BBB1B51E184
:1012700007C0AA1FBB1FA617B70710F0A61BB70B06
:10128000881F991F5A95A9F780959095BC01CD01AB
:101290000895EE0FFF1F0590F491E02D0994F89446
:0212A000FFCF7E
:1012A20054696D656F757420726563696576696EE0
:1012B200672073657269616C20646174612E0073CA
:1012C2006572766F735F7265616479000100030075
:1012D2000500060009000A000E000F0010001100B0
:0A12E20000000000F4064107590760
:00000001FF
