:100000000C9463000C948B000C948B000C948B006C
:100010000C948B000C948B000C948B000C948B0034
:100020000C948B000C948B000C948B000C94D201DC
:100030000C948B000C948B000C948B000C948B0014
:100040000C94FA030C948B000C9413050C948B0005
:100050000C948B000C948B000C948B000C948B00F4
:100060000C948B000C948B000000000024002700EF
:100070002A0000000000250028002B0000000000DE
:1000800023002600290004040404040404040202DA
:100090000202020203030303030301020408102007
:1000A0004080010204081020010204081020000012
:1000B0000007000201000003040600000000000029
:1000C00000008F02980611241FBECFEFD8E0DEBFDC
:1000D000CDBF11E0A0E0B1E0EEEEF1E102C005908D
:1000E0000D92A636B107D9F712E0A6E6B1E001C03D
:1000F0001D92AE38B107E1F710E0C6ECD0E004C0C5
:100100002297FE010E94F108C23CD107C9F70E9464
:10011000F3030C94F5080C940000FC018091660137
:100120008C3090F480838F5F80936601815090E0E3
:10013000FC01EE0FFF1FE80FF91FE959FE4F88EB96
:100140009BE09283818308958FEF80830895FC0163
:1001500020812C30C0F58181992787FD909548E852
:1001600050E0481B590B440F551F440F551F64178F
:10017000750784F08281992787FD909548E552E0C4
:10018000481B590B440F551F440F551F6417750723
:100190000CF4AB01CA01AA2797FDA095BA2F0697C8
:1001A000A109B109880F991FAA1FBB1F4FB7F89467
:1001B00030E0F901EE0FFF1FE20FF31FE959FE4F88
:1001C000928381834FBF0895AF92BF92CF92DF9207
:1001D000EF92FF920F931F93CF93DF93EC019B015C
:1001E00082E0603278070CF048C077FF03C020E05F
:1001F00030E005C0653B710514F024EB30E000D021
:1002000000D0B901882777FD8095982F2981332761
:1002100027FD3095B8E8AB2EB12CA21AB30AAA0C70
:10022000BB1CAA0CBB1CCC24B7FCC094DC2CEA8100
:10023000FF27E7FDF09528E532E02E1B3F0B220F4C
:10024000331F220F331F442737FD4095542FEDB73E
:10025000FEB7218332834383548320E030E040E0C3
:1002600050E0E4EBEE2EF12C012D112D0E94170829
:100270009B010F900F900F900F90CE01B9010E943B
:10028000A700DF91CF911F910F91FF90EF90DF902A
:10029000CF90BF90AF900895CF92DF92EF92FF92F0
:1002A0001F93CF93DF93EC01162F7A0169018881A8
:1002B0008C3008F064C0862F61E00E94A60488811B
:1002C00090E0FC01EE0FFF1FE80FF91FE959FE4F08
:1002D0001F738081807C812B808380E292E08E1965
:1002E0009F0964E070E00E948B08698380E699E0D2
:1002F0008C199D0964E070E00E948B086A83A881D4
:100300008A2F6CE00E947F08682F70E0AB01440FD9
:10031000551F460F571F440F551F440F551F20E010
:1003200030E0C901840F951FFC01EE0FFF1FE80F9D
:10033000F91FE959FE4F808186FD15C02F5F3F4FA1
:100340002C30310571F724C01092800082E0809338
:1003500081001092850010928400B19A80916F0004
:10036000826080936F008A2F90E0FC01EE0FFF1FE8
:10037000E80FF91FE959FE4F8081806480838881EE
:10038000DF91CF911F91FF90EF90DF90CF90089574
:10039000672BD1F2E8CF40E252E020E639E00E943C
:1003A0004C0108951F920F920FB60F9211242F93B4
:1003B0003F934F935F936F937F938F939F93AF93ED
:1003C000BF93EF93FF9380918B0187FF05C010923D
:1003D0008500109284002BC020918B01332727FDCC
:1003E00030958091660190E02817390704F58091D7
:1003F0008B01992787FD9095FC01EE0FFF1FE80FF9
:10040000F91FE959FE4F808186FF11C080918B0151
:10041000992787FD9095FC01EE0FFF1FE80FF91F4C
:10042000E959FE4F80818F7360E00E94C60480917D
:100430008B018F5F80938B0120918B01332727FDE8
:1004400030958091660190E0281739070CF04EC076
:1004500080918B018C300CF049C020918400309148
:10046000850080918B01992787FD9095FC01EE0F07
:10047000FF1FE80FF91FE959FE4F81819281280F74
:10048000391F309389002093880080918B01992730
:1004900087FD9095FC01EE0FFF1FE80FF91FE9594A
:1004A000FE4F808186FF2AC080918B01992787FDAE
:1004B0009095FC01EE0FFF1FE80FF91FE959FE4F61
:1004C00080818F7361E00E94C60418C080E49CE9BB
:1004D00005C08091840090918500049690938900D6
:1004E000809388008FEF80938B0108C080918400F7
:1004F0009091850084549C4948F3EBCFFF91EF9194
:10050000BF91AF919F918F917F916F915F914F912B
:100510003F912F910F900FBE0F901F9018958CE870
:1005200091E00E948D008FE891E00E948D00089577
:10053000CF93DF938091E2019091E30118161906A1
:100540000CF009C18BE792E060E071E00E941107B6
:10055000C0E0D0E009C0FE01EE56FE4F8BE792E00E
:1005600060810E94090721968091E2019091E30148
:10057000C817D90784F380919201803509F065C0CE
:100580008BE792E06AE071E00E94110720919501EB
:10059000332727FD309520533040442737FD4095C1
:1005A000542F8091E6019091E701A091E801B0916C
:1005B000E901280F391F4A1F5B1F8091930164E6F0
:1005C0008602C0011124805C9241AA2797FDA09564
:1005D000BA2F280F391F4A1F5B1F809194016AE0D0
:1005E0008602C0011124805E9140AA2797FDA09544
:1005F000BA2F280F391F4A1F5B1F2093E601309343
:10060000E7014093E8015093E9018BE792E00E94F3
:1006100019078BE792E06FE071E00E9411074091AB
:10062000E6015091E7016091E8017091E9018BE7E3
:1006300092E02AE030E00E9402086091E6017091A9
:10064000E7018CE891E00E94E400809192018435FA
:1006500009F065C08BE792E064E271E00E94110747
:1006600020919501332727FD3095205330404427B2
:1006700037FD4095542F8091EA019091EB01A091B4
:10068000EC01B091ED01280F391F4A1F5B1F8091CB
:10069000930164E68602C0011124805C9241AA277E
:1006A00097FDA095BA2F280F391F4A1F5B1F809115
:1006B00094016AE08602C0011124805E9140AA275D
:1006C00097FDA095BA2F280F391F4A1F5B1F209353
:1006D000EA013093EB014093EC015093ED018BE77D
:1006E00092E00E9419078BE792E06AE271E00E94B3
:1006F00011074091EA015091EB016091EC0170917A
:10070000ED018BE792E02AE030E00E940208609160
:10071000EA017091EB018FE891E00E94E4008BE721
:1007200092E00E9419071092E3011092E2011092E8
:10073000E5011092E4011092E6011092E701109297
:10074000E8011092E9011092EA011092EB01109277
:10075000EC011092ED01DF91CF91089515C08BE768
:1007600092E00E945D06BC018BE792E00E94FA07CE
:1007700061E070E080E090E00E9442048BE792E04C
:1007800060E471E00E9430078BE792E00E94490626
:10079000882329F708950E94AE030E9498020895C5
:1007A0000F931F930BE712E0C80140E855E260E0A9
:1007B00070E00E94500560915801709159018CE8D9
:1007C00091E00E94CB0160915A0170915B018FE82A
:1007D00091E00E94CB01C8016BE471E00E943007F8
:1007E0001F910F9108950E946C040E94D0030E94F3
:1007F000CB03FDCF1F920F920FB60F9211242F93B0
:100800003F938F939F93AF93BF938091F201909109
:10081000F301A091F401B091F5013091F601019638
:10082000A11DB11D232F2D5F2D3720F02D570196CF
:10083000A11DB11D2093F6018093F2019093F30165
:10084000A093F401B093F5018091EE019091EF0136
:10085000A091F001B091F1010196A11DB11D80930D
:10086000EE019093EF01A093F001B093F101BF91DD
:10087000AF919F918F913F912F910F900FBE0F904D
:100880001F901895EF92FF920F931F937B018C019D
:100890008FB7F8944091F2015091F3016091F40107
:1008A0007091F5018FBF2FB7F8948091F20190916C
:1008B000F301A091F401B091F5012FBF841B950BBA
:1008C000A60BB70BE816F9060A071B0760F71F917E
:1008D0000F91FF90EF900895789484B5826084BD65
:1008E00084B5816084BD85B5826085BD85B5816034
:1008F00085BDEEE6F0E0808181608083E1E8F0E094
:10090000808182608083808181608083E0E8F0E084
:10091000808181608083E1EBF0E08081846080836E
:10092000E0EBF0E0808181608083EAE7F0E08081A5
:100930008460808380818260808380818160808305
:100940008081806880831092C1000895282F30E054
:10095000C90186569F4FFC0194912A573F4FF901D8
:100960008491882391F0E82FF0E0EE0FFF1FE85903
:10097000FF4FA591B491662329F48C91909589231A
:100980008C9308958C91892B8C930895482F50E077
:10099000CA0182559F4FFC012491CA0186569F4F80
:1009A000FC0194914A575F4FFA0134913323D1F1FE
:1009B000222331F1233021F4809180008F7705C00C
:1009C000243031F4809180008F7D8093800018C0A6
:1009D000213019F484B58F7704C0223021F484B516
:1009E0008F7D84BD0DC0263021F48091B0008F77BB
:1009F00005C0273029F48091B0008F7D8093B0002E
:100A0000E32FF0E0EE0FFF1FEE58FF4FA591B491DA
:100A1000662329F48C91909589238C9308958C9169
:100A2000892B8C9308951F920F920FB60F92112469
:100A30002F933F934F935F936F937F938F939F93E6
:100A4000AF93BF93EF93FF934091C600E09177027D
:100A5000F0917802CF01019660E870E00E948B0867
:100A60009C018091790290917A022817390739F018
:100A7000E950FE4F40833093780220937702FF9134
:100A8000EF91BF91AF919F918F917F916F915F9106
:100A90004F913F912F910F900FBE0F901F9018957F
:100AA0005F926F927F928F929F92AF92BF92CF92FE
:100AB000DF92EF92FF920F931F93CF93DF93EC019E
:100AC0003A014B01413482E458078FE0680780E027
:100AD00078070CF07FC060E874E88EE190E0A40134
:100AE00093010E94C0082150304040405040CA014C
:100AF000B90122E030E040E050E00E94C008590116
:100B00006A01A6019501209530954095509594E095
:100B1000220F331F441F551F9A95D1F760E074E2EE
:100B200084EF90E00E94C008CA01B9012FEF30E0C5
:100B300040E050E00E946008A40193010E94C008B8
:100B4000C90181509F4F181619061CF4522E5A9451
:100B500003C055245394521A60E079E08DE390E08D
:100B6000A40193010E94C0082150304040405040F1
:100B7000CA01B90122E030E040E050E00E94C00824
:100B8000209530954095509583E0220F331F441FE8
:100B9000551F8A95D1F760E074E284EF90E00E94DF
:100BA000C008CA01B9012FEF30E040E050E00E94D8
:100BB0006008A40193010E94C008C90181509F4FA1
:100BC000181619061CF4822F815002C081E0821B86
:100BD000851500F5E885F98581E090E00A8802C076
:100BE000880F991F0A94E2F7808360E079E08DE333
:100BF00090E0A40193010E94C00821503040404081
:100C00005040CA01B90122E030E040E050E00E94CB
:100C1000C00804C0E885F98510829501EC81FD814A
:100C20003083EE81FF812083EA85FB85208141E0CE
:100C300050E0CA010E8402C0880F991F0A94E2F79F
:100C4000282B2083EA85FB852081CA010F8402C0FE
:100C5000880F991F0A94E2F7282B2083EA85FB85E9
:100C60008081088802C0440F551F0A94E2F7842B44
:100C70008083DF91CF911F910F91FF90EF90DF90D4
:100C8000CF90BF90AF909F908F907F906F905F902C
:100C90000895DC011296ED91FC911397E058FF4FF7
:100CA0008191919180589F4F20813181821B930BBC
:100CB00060E870E00E948B080895CF93DF93DC0119
:100CC0001296ED91FC911397EF01CE57DF4F4881BB
:100CD0005981E058FF4F80819181E058F04084179E
:100CE000950719F42FEF3FEF0CC0E40FF51F20819B
:100CF000CA01019660E870E00E948B08998388839E
:100D000030E0C901DF91CF910895FC01A085B18544
:100D100021898C9190E0022E02C0959587950A94C6
:100D2000E2F780FFF6CF0484F585E02D6083089517
:100D300080E691E090937C0280937B0287EF91E0C4
:100D400090937E0280937D0285EC90E090938002E8
:100D500080937F0284EC90E09093820280938102E2
:100D600080EC90E0909384028093830281EC90E089
:100D7000909386028093850286EC90E0909388029F
:100D80008093870284E08093890283E080938A02C3
:100D900087E080938B0285E080938C0281E08093D2
:100DA0008D0208950F931F93CF93DF938C01EB0176
:100DB00009C02196D801ED91FC910190F081E02DC0
:100DC000C801099568816623A1F7DF91CF911F9132
:100DD0000F910895EF92FF920F931F93CF93DF939C
:100DE0008C017B01EA010CC0D7016D917D01D80116
:100DF000ED91FC910190F081E02DC80109952197BA
:100E0000209791F7DF91CF911F910F91FF90EF9075
:100E10000895DC01ED91FC910190F081E02D0995A0
:100E20000895DC01ED91FC910280F381E02D09959C
:100E300008950F931F938C01DC01ED91FC910190BB
:100E4000F081E02D6DE00995D801ED91FC910190C4
:100E5000F081E02DC8016AE009951F910F91089576
:100E60000F931F938C010E941107C8010E9419075C
:100E70001F910F9108952F923F924F925F926F9220
:100E80007F928F929F92AF92BF92CF92DF92EF921A
:100E9000FF920F931F93DF93CF93CDB7DEB7A09749
:100EA0000FB6F894DEBF0FBECDBF1C016A017B01F7
:100EB000411551056105710549F4DC01ED91FC9185
:100EC0000190F081E02D60E3099554C088249924B5
:100ED0005401422E55246624772401E010E00C0FC3
:100EE0001D1F080D191DC701B601A30192010E9423
:100EF0009E08F80160830894811C911CA11CB11C00
:100F0000C701B601A30192010E949E08C901DA013E
:100F10006C017D01C114D104E104F104F1F681E01A
:100F2000E82EF12CEC0EFD1EE80CF91C3E01089495
:100F3000611C711CD501C4010197A109B1096C01A3
:100F4000C818D90814C0F601EE0DFF1D60816A3083
:100F500010F4605D01C0695CD101ED91FC910190DC
:100F6000F081E02DC10109950894E108F1086E14A3
:100F70007F0449F7A0960FB6F894DEBF0FBECDBF31
:100F8000CF91DF911F910F91FF90EF90DF90CF9065
:100F9000BF90AF909F908F907F906F905F904F9099
:100FA0003F902F900895EF92FF920F931F93CF934E
:100FB000DF93EC017A018B0177FF0FC0E881F981A3
:100FC0000190F081E02D6DE2099510950095F09467
:100FD000E094E11CF11C011D111DCE01B801A70117
:100FE0002AE00E943B07DF91CF911F910F91FF9064
:100FF000EF900895AB01662757FD6095762F0E940C
:10100000D3070895DC012115310541F4ED91FC91E0
:101010000190F081E02D642F099508952A30310563
:1010200019F40E94D30708950E943B0708952F9258
:101030003F924F925F926F927F928F929F92AF9268
:10104000BF92CF92DF92EF92FF920F931F93DF93A5
:10105000CF93CDB7DEB73B014C0119012A016D8951
:101060007E898F89988D6A197B098C099D09621A7E
:10107000730A840A950AA40193010E946008E21889
:10108000F30804091509A80197010E94C0082A0D58
:101090003B1D4C1D5D1DB901CA01CF91DF911F9110
:1010A0000F91FF90EF90DF90CF90BF90AF909F9007
:1010B0008F907F906F905F904F903F902F9008950A
:1010C000629FD001739FF001829FE00DF11D649F2C
:1010D000E00DF11D929FF00D839FF00D749FF00DB8
:1010E000659FF00D9927729FB00DE11DF91F639F59
:1010F000B00DE11DF91FBD01CF0111240895991B09
:1011000079E004C0991F961708F0961B881F7A95FE
:10111000C9F78095089597FB092E07260AD077FD19
:1011200004D049D006D000201AF4709561957F4F05
:101130000895F6F7909581959F4F0895A1E21A2E94
:10114000AA1BBB1BFD010DC0AA1FBB1FEE1FFF1F6B
:10115000A217B307E407F50720F0A21BB30BE40BBB
:10116000F50B661F771F881F991F1A9469F7609502
:101170007095809590959B01AC01BD01CF010895BC
:1011800097FB092E05260ED057FD04D0D7DF0AD0D5
:10119000001C38F450954095309521953F4F4F4FA6
:1011A0005F4F0895F6F790958095709561957F4F04
:1011B0008F4F9F4F0895AA1BBB1B51E107C0AA1F69
:1011C000BB1FA617B70710F0A61BB70B881F991FE8
:1011D0005A95A9F780959095BC01CD010895EE0F21
:0E11E000FF1F0590F491E02D0994F894FFCFC5
:1011EE00436F6D6D616E643A200050616E21005642
:1011FE00616C756520746F2070616E2073657276F8
:10120E006F3A200054696C74210056616C7565202C
:10121E00746F2074696C7420736572766F3A200057
:10122E002072656369657665642E00736572766FEC
:10123E00735F7265616479000E000A0000000000A1
:06124E008506D206EA0647
:00000001FF
