:100000000C9463000C948B000C948B000C948B006C
:100010000C948B000C948B000C948B000C948B0034
:100020000C948B000C948B000C948B000C94D201DC
:100030000C948B000C948B000C948B000C948B0014
:100040000C9413040C948B000C942C050C948B00D2
:100050000C948B000C948B000C948B000C948B00F4
:100060000C948B000C948B000000000024002700EF
:100070002A0000000000250028002B0000000000DE
:1000800023002600290004040404040404040202DA
:100090000202020203030303030301020408102007
:1000A0004080010204081020010204081020000012
:1000B0000007000201000003040600000000000029
:1000C00000008F02B10611241FBECFEFD8E0DEBFC3
:1000D000CDBF11E0A0E0B1E0E0E1F2E102C00590A7
:1000E0000D92AC35B107D9F712E0ACE5B1E001C033
:1000F0001D92A438B107E1F710E0C6ECD0E004C0CF
:100100002297FE010E940209C23CD107C9F70E9452
:100110000C040C9406090C940000FC0180915C0115
:100120008C3090F480838F5F80935C01815090E0ED
:10013000FC01EE0FFF1FE80FF91FE35AFE4F88EB9B
:100140009BE09283818308958FEF80830895FC0163
:1001500020812C30C0F58181992787FD909548E852
:1001600050E0481B590B440F551F440F551F64178F
:10017000750784F08281992787FD909548E552E0C4
:10018000481B590B440F551F440F551F6417750723
:100190000CF4AB01CA01AA2797FDA095BA2F0697C8
:1001A000A109B109880F991FAA1FBB1F4FB7F89467
:1001B00030E0F901EE0FFF1FE20FF31FE35AFE4F8D
:1001C000928381834FBF0895AF92BF92CF92DF9207
:1001D000EF92FF920F931F93CF93DF93EC019B015C
:1001E00082E0603278070CF048C077FF03C020E05F
:1001F00030E005C0653B710514F024EB30E000D021
:1002000000D0B901882777FD8095982F2981332761
:1002100027FD3095B8E8AB2EB12CA21AB30AAA0C70
:10022000BB1CAA0CBB1CCC24B7FCC094DC2CEA8100
:10023000FF27E7FDF09528E532E02E1B3F0B220F4C
:10024000331F220F331F442737FD4095542FEDB73E
:10025000FEB7218332834383548320E030E040E0C3
:1002600050E0E4EBEE2EF12C012D112D0E94280818
:100270009B010F900F900F900F90CE01B9010E943B
:10028000A700DF91CF911F910F91FF90EF90DF902A
:10029000CF90BF90AF900895CF92DF92EF92FF92F0
:1002A0001F93CF93DF93EC01162F7A0169018881A8
:1002B0008C3008F064C0862F61E00E94BF04888102
:1002C00090E0FC01EE0FFF1FE80FF91FE35AFE4F0D
:1002D0001F738081807C812B808380E292E08E1965
:1002E0009F0964E070E00E949C08698380E699E0C1
:1002F0008C199D0964E070E00E949C086A83A881C3
:100300008A2F6CE00E949008682F70E0AB01440FC8
:10031000551F460F571F440F551F440F551F20E010
:1003200030E0C901840F951FFC01EE0FFF1FE80F9D
:10033000F91FE35AFE4F808186FD15C02F5F3F4FA6
:100340002C30310571F724C01092800082E0809338
:1003500081001092850010928400B19A80916F0004
:10036000826080936F008A2F90E0FC01EE0FFF1FE8
:10037000E80FF91FE35AFE4F8081806480838881F3
:10038000DF91CF911F91FF90EF90DF90CF90089574
:10039000672BD1F2E8CF40E252E020E639E00E943C
:1003A0004C0108951F920F920FB60F9211242F93B4
:1003B0003F934F935F936F937F938F939F93AF93ED
:1003C000BF93EF93FF938091810187FF05C0109247
:1003D0008500109284002BC020918101332727FDD6
:1003E000309580915C0190E02817390704F58091E1
:1003F0008101992787FD9095FC01EE0FFF1FE80F03
:10040000F91FE35AFE4F808186FF11C08091810160
:10041000992787FD9095FC01EE0FFF1FE80FF91F4C
:10042000E35AFE4F80818F7360E00E94DF04809169
:1004300081018F5F8093810120918101332727FD06
:10044000309580915C0190E0281739070CF04EC080
:10045000809181018C300CF049C020918400309152
:10046000850080918101992787FD9095FC01EE0F11
:10047000FF1FE80FF91FE35AFE4F81819281280F79
:10048000391F30938900209388008091810199273A
:1004900087FD9095FC01EE0FFF1FE80FF91FE35A4F
:1004A000FE4F808186FF2AC080918101992787FDB8
:1004B0009095FC01EE0FFF1FE80FF91FE35AFE4F66
:1004C00080818F7361E00E94DF0418C080E49CE9A2
:1004D00005C08091840090918500049690938900D6
:1004E000809388008FEF8093810108C08091840001
:1004F0009091850084549C4948F3EBCFFF91EF9194
:10050000BF91AF919F918F917F916F915F914F912B
:100510003F912F910F900FBE0F901F90189582E87A
:1005200091E00E948D0085E891E00E948D00089581
:10053000CF93DF938091D8019091D90118161906B5
:100540000CF009C181E792E060E071E00E942A07A7
:10055000C0E0D0E009C0FE01E857FE4F81E792E01D
:1005600060810E94220721968091D8019091D90143
:10057000C817D90784F380918801803509F065C0D8
:1005800081E792E06AE071E00E942A0720918B01E6
:10059000332727FD309520533040442737FD4095C1
:1005A000542F8091DC019091DD01A091DE01B0918A
:1005B000DF01280F391F4A1F5B1F8091890164E604
:1005C0008602C0011124805C9241AA2797FDA09564
:1005D000BA2F280F391F4A1F5B1F80918A016AE0DA
:1005E0008602C0011124805E9140AA2797FDA09544
:1005F000BA2F280F391F4A1F5B1F2093DC0130934D
:10060000DD014093DE015093DF0181E792E00E941B
:10061000320781E792E06FE071E00E942A07409183
:10062000DC015091DD016091DE017091DF0181E715
:1006300092E02AE030E00E9413086091DC017091A2
:10064000DD0182E891E00E94E40080918801843518
:1006500009F065C081E792E064E271E00E942A0738
:1006600020918B01332727FD3095205330404427BC
:1006700037FD4095542F8091E0019091E101A091C8
:10068000E201B091E301280F391F4A1F5B1F8091DF
:10069000890164E68602C0011124805C9241AA2788
:1006A00097FDA095BA2F280F391F4A1F5B1F809115
:1006B0008A016AE08602C0011124805E9140AA2767
:1006C00097FDA095BA2F280F391F4A1F5B1F209353
:1006D000E0013093E1014093E2015093E30181E7AF
:1006E00092E00E94320781E792E06AE271E00E94A4
:1006F0002A074091E0015091E1016091E20170917F
:10070000E30181E792E02AE030E00E941308609163
:10071000E0017091E10185E891E00E94E40081E749
:1007200092E00E9432071092D9011092D8011092E3
:10073000DB011092DA011092DC011092DD011092BF
:10074000DE011092DF011092E0011092E10110929F
:10075000E2011092E301DF91CF9108950F931F936F
:10076000CF93DF9300E010E024C081E792E00E9485
:100770007606EC0161E070E080E090E00E945B04AE
:10078000CD3FD10519F401E010E013C0CF3FD105F2
:10079000B1F00115110569F08091D8019091D9014E
:1007A000FC01E857FE4FC08301969093D9018093D6
:1007B000D80181E792E00E9462068823B1F6DF91BA
:1007C000CF911F910F9108950E94AE030E9498024D
:1007D00008950F931F9301E712E0C80140E855E226
:1007E00060E070E00E94690560914D0170914E01DA
:1007F00082E891E00E94CB0160914F01709150011D
:1008000085E891E00E94CB01C80160E471E00E949C
:1008100049071F910F9108950E9485040E94E903E2
:100820000E94E403FDCF1F920F920FB60F92112486
:100830002F933F938F939F93AF93BF938091E80142
:100840009091E901A091EA01B091EB013091EC01A6
:100850000196A11DB11D232F2D5F2D3720F02D579F
:100860000196A11DB11D2093EC018093E8019093A6
:10087000E901A093EA01B093EB018091E40190912A
:10088000E501A091E601B091E7010196A11DB11D1E
:100890008093E4019093E501A093E601B093E70112
:1008A000BF91AF919F918F913F912F910F900FBE6C
:1008B0000F901F901895EF92FF920F931F937B015B
:1008C0008C018FB7F8944091E8015091E901609153
:1008D000EA017091EB018FBF2FB7F8948091E80186
:1008E0009091E901A091EA01B091EB012FBF841B27
:1008F000950BA60BB70BE816F9060A071B0760F75E
:100900001F910F91FF90EF900895789484B58260C5
:1009100084BD84B5816084BD85B5826085BD85B5A3
:10092000816085BDEEE6F0E0808181608083E1E852
:10093000F0E0808182608083808181608083E0E854
:10094000F0E0808181608083E1EBF0E08081846071
:100950008083E0EBF0E0808181608083EAE7F0E073
:1009600080818460808380818260808380818160D7
:1009700080838081806880831092C1000895282F31
:1009800030E0C90186569F4FFC0194912A573F4F92
:10099000F9018491882391F0E82FF0E0EE0FFF1F1A
:1009A000E859FF4FA591B491662329F48C91909555
:1009B00089238C9308958C91892B8C930895482FCB
:1009C00050E0CA0182559F4FFC012491CA0186560E
:1009D0009F4FFC0194914A575F4FFA0134913323A2
:1009E000D1F1222331F1233021F4809180008F77DF
:1009F00005C0243031F4809180008F7D8093800089
:100A000018C0213019F484B58F7704C0223021F446
:100A100084B58F7D84BD0DC0263021F48091B00057
:100A20008F7705C0273029F48091B0008F7D8093A7
:100A3000B000E32FF0E0EE0FFF1FEE58FF4FA5913F
:100A4000B491662329F48C91909589238C93089511
:100A50008C91892B8C9308951F920F920FB60F9251
:100A600011242F933F934F935F936F937F938F93B3
:100A70009F93AF93BF93EF93FF934091C600E09194
:100A80006D02F0916E02CF01019660E870E00E9465
:100A90009C089C0180916F02909170022817390781
:100AA00039F0E351FE4F408330936E0220936D0284
:100AB000FF91EF91BF91AF919F918F917F916F9136
:100AC0005F914F913F912F910F900FBE0F901F900C
:100AD00018955F926F927F928F929F92AF92BF9282
:100AE000CF92DF92EF92FF920F931F93CF93DF93FA
:100AF000EC013A014B01413482E458078FE068076A
:100B000080E078070CF07FC060E874E88EE190E048
:100B1000A40193010E94D108215030404040504030
:100B2000CA01B90122E030E040E050E00E94D10863
:100B300059016A01A601950120953095409550957F
:100B400094E0220F331F441F551F9A95D1F760E0A0
:100B500074E284EF90E00E94D108CA01B9012FEF3E
:100B600030E040E050E00E947108A40193010E942F
:100B7000D108C90181509F4F181619061CF4522E36
:100B80005A9403C055245394521A60E079E08DE3DF
:100B900090E0A40193010E94D108215030404040D0
:100BA0005040CA01B90122E030E040E050E00E942C
:100BB000D108209530954095509583E0220F331F42
:100BC000441F551F8A95D1F760E074E284EF90E0EE
:100BD0000E94D108CA01B9012FEF30E040E050E097
:100BE0000E947108A40193010E94D108C90181509B
:100BF0009F4F181619061CF4822F815002C081E005
:100C0000821B851500F5E885F98581E090E00A886A
:100C100002C0880F991F0A94E2F7808360E079E0B0
:100C20008DE390E0A40193010E94D108215030404F
:100C300040405040CA01B90122E030E040E050E0BD
:100C40000E94D10804C0E885F98510829501EC81E5
:100C5000FD813083EE81FF812083EA85FB85208141
:100C600041E050E0CA010E8402C0880F991F0A9427
:100C7000E2F7282B2083EA85FB852081CA010F84B7
:100C800002C0880F991F0A94E2F7282B2083EA8577
:100C9000FB858081088802C0440F551F0A94E2F743
:100CA000842B8083DF91CF911F910F91FF90EF9064
:100CB000DF90CF90BF90AF909F908F907F906F907C
:100CC0005F900895DC011296ED91FC911397E05826
:100CD000FF4F8191919180589F4F20813181821BDC
:100CE000930B60E870E00E949C080895CF93DF9317
:100CF000DC011296ED91FC911397EF01CE57DF4F77
:100D000048815981E058FF4F80819181E058F0403F
:100D10008417950719F42FEF3FEF0CC0E40FF51F70
:100D20002081CA01019660E870E00E949C089983C6
:100D3000888330E0C901DF91CF910895FC01A0853F
:100D4000B18521898C9190E0022E02C095958795FE
:100D50000A94E2F780FFF6CF0484F585E02D6083E6
:100D6000089585E591E090937202809371028DEE73
:100D700091E0909374028093730285EC90E09093DD
:100D800076028093750284EC90E0909378028093D1
:100D9000770280EC90E090937A028093790281EC64
:100DA00090E090937C0280937B0286EC90E090939D
:100DB0007E0280937D0284E080937F0283E08093B3
:100DC000800287E08093810285E08093820281E047
:100DD0008093830208950F931F93CF93DF938C0129
:100DE000EB0109C02196D801ED91FC910190F081B1
:100DF000E02DC801099568816623A1F7DF91CF91A5
:100E00001F910F910895EF92FF920F931F93CF932D
:100E1000DF938C017B01EA010CC0D7016D917D014C
:100E2000D801ED91FC910190F081E02DC801099568
:100E30002197209791F7DF91CF911F910F91FF900C
:100E4000EF900895DC01ED91FC910190F081E02D8F
:100E500009950895DC01ED91FC910280F381E02D6C
:100E6000099508950F931F938C01DC01ED91FC917E
:100E70000190F081E02D6DE00995D801ED91FC9194
:100E80000190F081E02DC8016AE009951F910F9152
:100E900008950F931F938C010E942A07C8010E9496
:100EA00032071F910F9108952F923F924F925F92B8
:100EB0006F927F928F929F92AF92BF92CF92DF926A
:100EC000EF92FF920F931F93DF93CF93CDB7DEB7CF
:100ED000A0970FB6F894DEBF0FBECDBF1C016A010C
:100EE0007B01411551056105710549F4DC01ED9166
:100EF000FC910190F081E02D60E3099554C08824B5
:100F000099245401422E55246624772401E010E0F0
:100F10000C0F1D1F080D191DC701B601A301920179
:100F20000E94AF08F80160830894811C911CA11CE9
:100F3000B11CC701B601A30192010E94AF08C9010B
:100F4000DA016C017D01C114D104E104F104F1F670
:100F500081E0E82EF12CEC0EFD1EE80CF91C3E01A0
:100F60000894611C711CD501C4010197A109B10944
:100F70006C01C818D90814C0F601EE0DFF1D608180
:100F80006A3010F4605D01C0695CD101ED91FC91A3
:100F90000190F081E02DC10109950894E108F10864
:100FA0006E147F0449F7A0960FB6F894DEBF0FBE0B
:100FB000CDBFCF91DF911F910F91FF90EF90DF9008
:100FC000CF90BF90AF909F908F907F906F905F90E9
:100FD0004F903F902F900895EF92FF920F931F93A1
:100FE000CF93DF93EC017A018B0177FF0FC0E8818B
:100FF000F9810190F081E02D6DE209951095009541
:10100000F094E094E11CF11C011D111DCE01B8010A
:10101000A7012AE00E945407DF91CF911F910F9101
:10102000FF90EF900895DC012115310541F4ED9119
:10103000FC910190F081E02D642F099508952A30EC
:10104000310519F40E94EC0708950E945407089591
:101050002F923F924F925F926F927F928F929F92C8
:10106000AF92BF92CF92DF92EF92FF920F931F93B6
:10107000DF93CF93CDB7DEB73B014C0119012A01B5
:101080006D897E898F89988D6A197B098C099D09E4
:10109000621A730A840A950AA40193010E947108D6
:1010A000E218F30804091509A80197010E94D10864
:1010B0002A0D3B1D4C1D5D1DB901CA01CF91DF9169
:1010C0001F910F91FF90EF90DF90CF90BF90AF9066
:1010D0009F908F907F906F905F904F903F902F9058
:1010E0000895629FD001739FF001829FE00DF11D72
:1010F000649FE00DF11D929FF00D839FF00D749F92
:10110000F00D659FF00D9927729FB00DE11DF91F3D
:10111000639FB00DE11DF91FBD01CF01112408959A
:10112000991B79E004C0991F961708F0961B881F39
:101130007A95C9F78095089597FB092E07260AD05E
:1011400077FD04D049D006D000201AF4709561953F
:101150007F4F0895F6F7909581959F4F0895A1E2EE
:101160001A2EAA1BBB1BFD010DC0AA1FBB1FEE1F21
:10117000FF1FA217B307E407F50720F0A21BB30B6C
:10118000E40BF50B661F771F881F991F1A9469F7E8
:1011900060957095809590959B01AC01BD01CF0144
:1011A000089597FB092E05260ED057FD04D0D7DFF2
:1011B0000AD0001C38F450954095309521953F4F4A
:1011C0004F4F5F4F0895F6F7909580957095619514
:1011D0007F4F8F4F9F4F0895AA1BBB1B51E107C044
:1011E000AA1FBB1FA617B70710F0A61BB70B881FB7
:1011F000991F5A95A9F780959095BC01CD01089546
:10120000EE0FFF1F0590F491E02D0994F894FFCFA5
:10121000436F6D6D616E643A200050616E2100561F
:10122000616C756520746F2070616E2073657276D5
:101230006F3A200054696C74210056616C7565200A
:10124000746F2074696C7420736572766F3A200035
:10125000736572766F735F7265616479000E000A60
:0C12600000000000009E06EB06030700E3
:00000001FF
